{
  "_format": "hh-sol-artifact-1",
  "contractName": "RealEstateToken",
  "sourceName": "contracts/RealEstateToken.sol",
  "abi": [
    {
      "inputs": [],
      "stateMutability": "nonpayable",
      "type": "constructor"
    },
    {
      "anonymous": false,
      "inputs": [
        {
          "indexed": true,
          "internalType": "address",
          "name": "account",
          "type": "address"
        },
        {
          "indexed": true,
          "internalType": "address",
          "name": "operator",
          "type": "address"
        },
        {
          "indexed": false,
          "internalType": "bool",
          "name": "approved",
          "type": "bool"
        }
      ],
      "name": "ApprovalForAll",
      "type": "event"
    },
    {
      "anonymous": false,
      "inputs": [
        {
          "indexed": true,
          "internalType": "address",
          "name": "previousOwner",
          "type": "address"
        },
        {
          "indexed": true,
          "internalType": "address",
          "name": "newOwner",
          "type": "address"
        }
      ],
      "name": "OwnershipTransferred",
      "type": "event"
    },
    {
      "anonymous": false,
      "inputs": [
        {
          "indexed": true,
          "internalType": "uint256",
          "name": "propertyId",
          "type": "uint256"
        },
        {
          "indexed": false,
          "internalType": "string",
          "name": "name",
          "type": "string"
        },
        {
          "indexed": false,
          "internalType": "string",
          "name": "location",
          "type": "string"
        },
        {
          "indexed": false,
          "internalType": "uint256",
          "name": "totalTokens",
          "type": "uint256"
        },
        {
          "indexed": false,
          "internalType": "uint256",
          "name": "pricePerToken",
          "type": "uint256"
        }
      ],
      "name": "PropertyCreated",
      "type": "event"
    },
    {
      "anonymous": false,
      "inputs": [
        {
          "indexed": true,
          "internalType": "uint256",
          "name": "propertyId",
          "type": "uint256"
        }
      ],
      "name": "PropertyDeactivated",
      "type": "event"
    },
    {
      "anonymous": false,
      "inputs": [
        {
          "indexed": true,
          "internalType": "address",
          "name": "buyer",
          "type": "address"
        },
        {
          "indexed": true,
          "internalType": "uint256",
          "name": "propertyId",
          "type": "uint256"
        },
        {
          "indexed": false,
          "internalType": "uint256",
          "name": "amount",
          "type": "uint256"
        },
        {
          "indexed": false,
          "internalType": "uint256",
          "name": "totalPrice",
          "type": "uint256"
        }
      ],
      "name": "TokensPurchased",
      "type": "event"
    },
    {
      "anonymous": false,
      "inputs": [
        {
          "indexed": true,
          "internalType": "address",
          "name": "operator",
          "type": "address"
        },
        {
          "indexed": true,
          "internalType": "address",
          "name": "from",
          "type": "address"
        },
        {
          "indexed": true,
          "internalType": "address",
          "name": "to",
          "type": "address"
        },
        {
          "indexed": false,
          "internalType": "uint256[]",
          "name": "ids",
          "type": "uint256[]"
        },
        {
          "indexed": false,
          "internalType": "uint256[]",
          "name": "values",
          "type": "uint256[]"
        }
      ],
      "name": "TransferBatch",
      "type": "event"
    },
    {
      "anonymous": false,
      "inputs": [
        {
          "indexed": true,
          "internalType": "address",
          "name": "operator",
          "type": "address"
        },
        {
          "indexed": true,
          "internalType": "address",
          "name": "from",
          "type": "address"
        },
        {
          "indexed": true,
          "internalType": "address",
          "name": "to",
          "type": "address"
        },
        {
          "indexed": false,
          "internalType": "uint256",
          "name": "id",
          "type": "uint256"
        },
        {
          "indexed": false,
          "internalType": "uint256",
          "name": "value",
          "type": "uint256"
        }
      ],
      "name": "TransferSingle",
      "type": "event"
    },
    {
      "anonymous": false,
      "inputs": [
        {
          "indexed": false,
          "internalType": "string",
          "name": "value",
          "type": "string"
        },
        {
          "indexed": true,
          "internalType": "uint256",
          "name": "id",
          "type": "uint256"
        }
      ],
      "name": "URI",
      "type": "event"
    },
    {
      "inputs": [
        {
          "internalType": "address",
          "name": "account",
          "type": "address"
        },
        {
          "internalType": "uint256",
          "name": "id",
          "type": "uint256"
        }
      ],
      "name": "balanceOf",
      "outputs": [
        {
          "internalType": "uint256",
          "name": "",
          "type": "uint256"
        }
      ],
      "stateMutability": "view",
      "type": "function"
    },
    {
      "inputs": [
        {
          "internalType": "address[]",
          "name": "accounts",
          "type": "address[]"
        },
        {
          "internalType": "uint256[]",
          "name": "ids",
          "type": "uint256[]"
        }
      ],
      "name": "balanceOfBatch",
      "outputs": [
        {
          "internalType": "uint256[]",
          "name": "",
          "type": "uint256[]"
        }
      ],
      "stateMutability": "view",
      "type": "function"
    },
    {
      "inputs": [
        {
          "internalType": "string",
          "name": "name",
          "type": "string"
        },
        {
          "internalType": "string",
          "name": "location",
          "type": "string"
        },
        {
          "internalType": "uint256",
          "name": "totalTokens",
          "type": "uint256"
        },
        {
          "internalType": "uint256",
          "name": "pricePerToken",
          "type": "uint256"
        },
        {
          "internalType": "string",
          "name": "metadataURI",
          "type": "string"
        }
      ],
      "name": "createProperty",
      "outputs": [],
      "stateMutability": "nonpayable",
      "type": "function"
    },
    {
      "inputs": [
        {
          "internalType": "uint256",
          "name": "propertyId",
          "type": "uint256"
        }
      ],
      "name": "deactivateProperty",
      "outputs": [],
      "stateMutability": "nonpayable",
      "type": "function"
    },
    {
      "inputs": [
        {
          "internalType": "uint256",
          "name": "id",
          "type": "uint256"
        }
      ],
      "name": "exists",
      "outputs": [
        {
          "internalType": "bool",
          "name": "",
          "type": "bool"
        }
      ],
      "stateMutability": "view",
      "type": "function"
    },
    {
      "inputs": [
        {
          "internalType": "uint256",
          "name": "propertyId",
          "type": "uint256"
        }
      ],
      "name": "getProperty",
      "outputs": [
        {
          "internalType": "string",
          "name": "name",
          "type": "string"
        },
        {
          "internalType": "string",
          "name": "location",
          "type": "string"
        },
        {
          "internalType": "uint256",
          "name": "totalTokens",
          "type": "uint256"
        },
        {
          "internalType": "uint256",
          "name": "pricePerToken",
          "type": "uint256"
        },
        {
          "internalType": "bool",
          "name": "isActive",
          "type": "bool"
        },
        {
          "internalType": "uint256",
          "name": "availableTokens",
          "type": "uint256"
        }
      ],
      "stateMutability": "view",
      "type": "function"
    },
    {
      "inputs": [
        {
          "internalType": "address",
          "name": "account",
          "type": "address"
        },
        {
          "internalType": "address",
          "name": "operator",
          "type": "address"
        }
      ],
      "name": "isApprovedForAll",
      "outputs": [
        {
          "internalType": "bool",
          "name": "",
          "type": "bool"
        }
      ],
      "stateMutability": "view",
      "type": "function"
    },
    {
      "inputs": [],
      "name": "owner",
      "outputs": [
        {
          "internalType": "address",
          "name": "",
          "type": "address"
        }
      ],
      "stateMutability": "view",
      "type": "function"
    },
    {
      "inputs": [
        {
          "internalType": "uint256",
          "name": "",
          "type": "uint256"
        }
      ],
      "name": "properties",
      "outputs": [
        {
          "internalType": "string",
          "name": "name",
          "type": "string"
        },
        {
          "internalType": "string",
          "name": "location",
          "type": "string"
        },
        {
          "internalType": "uint256",
          "name": "totalTokens",
          "type": "uint256"
        },
        {
          "internalType": "uint256",
          "name": "pricePerToken",
          "type": "uint256"
        },
        {
          "internalType": "bool",
          "name": "isActive",
          "type": "bool"
        },
        {
          "internalType": "string",
          "name": "metadataURI",
          "type": "string"
        }
      ],
      "stateMutability": "view",
      "type": "function"
    },
    {
      "inputs": [
        {
          "internalType": "uint256",
          "name": "propertyId",
          "type": "uint256"
        },
        {
          "internalType": "uint256",
          "name": "amount",
          "type": "uint256"
        }
      ],
      "name": "purchaseTokens",
      "outputs": [],
      "stateMutability": "payable",
      "type": "function"
    },
    {
      "inputs": [],
      "name": "renounceOwnership",
      "outputs": [],
      "stateMutability": "nonpayable",
      "type": "function"
    },
    {
      "inputs": [
        {
          "internalType": "address",
          "name": "from",
          "type": "address"
        },
        {
          "internalType": "address",
          "name": "to",
          "type": "address"
        },
        {
          "internalType": "uint256[]",
          "name": "ids",
          "type": "uint256[]"
        },
        {
          "internalType": "uint256[]",
          "name": "amounts",
          "type": "uint256[]"
        },
        {
          "internalType": "bytes",
          "name": "data",
          "type": "bytes"
        }
      ],
      "name": "safeBatchTransferFrom",
      "outputs": [],
      "stateMutability": "nonpayable",
      "type": "function"
    },
    {
      "inputs": [
        {
          "internalType": "address",
          "name": "from",
          "type": "address"
        },
        {
          "internalType": "address",
          "name": "to",
          "type": "address"
        },
        {
          "internalType": "uint256",
          "name": "id",
          "type": "uint256"
        },
        {
          "internalType": "uint256",
          "name": "amount",
          "type": "uint256"
        },
        {
          "internalType": "bytes",
          "name": "data",
          "type": "bytes"
        }
      ],
      "name": "safeTransferFrom",
      "outputs": [],
      "stateMutability": "nonpayable",
      "type": "function"
    },
    {
      "inputs": [
        {
          "internalType": "address",
          "name": "operator",
          "type": "address"
        },
        {
          "internalType": "bool",
          "name": "approved",
          "type": "bool"
        }
      ],
      "name": "setApprovalForAll",
      "outputs": [],
      "stateMutability": "nonpayable",
      "type": "function"
    },
    {
      "inputs": [
        {
          "internalType": "bytes4",
          "name": "interfaceId",
          "type": "bytes4"
        }
      ],
      "name": "supportsInterface",
      "outputs": [
        {
          "internalType": "bool",
          "name": "",
          "type": "bool"
        }
      ],
      "stateMutability": "view",
      "type": "function"
    },
    {
      "inputs": [
        {
          "internalType": "uint256",
          "name": "id",
          "type": "uint256"
        }
      ],
      "name": "totalSupply",
      "outputs": [
        {
          "internalType": "uint256",
          "name": "",
          "type": "uint256"
        }
      ],
      "stateMutability": "view",
      "type": "function"
    },
    {
      "inputs": [
        {
          "internalType": "address",
          "name": "newOwner",
          "type": "address"
        }
      ],
      "name": "transferOwnership",
      "outputs": [],
      "stateMutability": "nonpayable",
      "type": "function"
    },
    {
      "inputs": [
        {
          "internalType": "uint256",
          "name": "tokenId",
          "type": "uint256"
        }
      ],
      "name": "uri",
      "outputs": [
        {
          "internalType": "string",
          "name": "",
          "type": "string"
        }
      ],
      "stateMutability": "view",
      "type": "function"
    },
    {
      "inputs": [],
      "name": "withdraw",
      "outputs": [],
      "stateMutability": "nonpayable",
      "type": "function"
    }
  ],
  "bytecode": "0x608060405234801561000f575f5ffd5b5060405180602001604052805f81525061002e8161005760201b60201c565b5061004b61004061006a60201b60201c565b61007160201b60201c565b5f600681905550610440565b80600290816100669190610371565b5050565b5f33905090565b5f60045f9054906101000a900473ffffffffffffffffffffffffffffffffffffffff1690508160045f6101000a81548173ffffffffffffffffffffffffffffffffffffffff021916908373ffffffffffffffffffffffffffffffffffffffff1602179055508173ffffffffffffffffffffffffffffffffffffffff168173ffffffffffffffffffffffffffffffffffffffff167f8be0079c531659141344cd1fd0a4f28419497f9722a3daafe3b4186f6b6457e060405160405180910390a35050565b5f81519050919050565b7f4e487b71000000000000000000000000000000000000000000000000000000005f52604160045260245ffd5b7f4e487b71000000000000000000000000000000000000000000000000000000005f52602260045260245ffd5b5f60028204905060018216806101af57607f821691505b6020821081036101c2576101c161016b565b5b50919050565b5f819050815f5260205f209050919050565b5f6020601f8301049050919050565b5f82821b905092915050565b5f600883026102247fffffffffffffffffffffffffffffffffffffffffffffffffffffffffffffffff826101e9565b61022e86836101e9565b95508019841693508086168417925050509392505050565b5f819050919050565b5f819050919050565b5f61027261026d61026884610246565b61024f565b610246565b9050919050565b5f819050919050565b61028b83610258565b61029f61029782610279565b8484546101f5565b825550505050565b5f5f905090565b6102b66102a7565b6102c1818484610282565b505050565b5b818110156102e4576102d95f826102ae565b6001810190506102c7565b5050565b601f821115610329576102fa816101c8565b610303846101da565b81016020851015610312578190505b61032661031e856101da565b8301826102c6565b50505b505050565b5f82821c905092915050565b5f6103495f198460080261032e565b1980831691505092915050565b5f610361838361033a565b9150826002028217905092915050565b61037a82610134565b67ffffffffffffffff8111156103935761039261013e565b5b61039d8254610198565b6103a88282856102e8565b5f60209050601f8311600181146103d9575f84156103c7578287015190505b6103d18582610356565b865550610438565b601f1984166103e7866101c8565b5f5b8281101561040e578489015182556001820191506020850194506020810190506103e9565b8683101561042b5784890151610427601f89168261033a565b8355505b6001600288020188555050505b505050505050565b6141538061044d5f395ff3fe608060405260043610610112575f3560e01c8063715018a61161009f578063bd85b03911610063578063bd85b03914610395578063e985e9c5146103d1578063f242432a1461040d578063f2fde38b14610435578063f7b108081461045d57610112565b8063715018a6146102e95780637ca28bc6146102ff5780638bf0af3e146103275780638da5cb5b14610343578063a22cb4651461036d57610112565b80632eb2c2d6116100e65780632eb2c2d6146101f257806332665ffb1461021a5780633ccfd60b1461025b5780634e1273f4146102715780634f558e79146102ad57610112565b8062fdd58e1461011657806301ffc9a7146101525780630cb048651461018e5780630e89341c146101b6575b5f5ffd5b348015610121575f5ffd5b5061013c6004803603810190610137919061249f565b61049e565b60405161014991906124ec565b60405180910390f35b34801561015d575f5ffd5b506101786004803603810190610173919061255a565b610561565b604051610185919061259f565b60405180910390f35b348015610199575f5ffd5b506101b460048036038101906101af91906126f4565b610642565b005b3480156101c1575f5ffd5b506101dc60048036038101906101d791906127bf565b610802565b6040516101e9919061284a565b60405180910390f35b3480156101fd575f5ffd5b50610218600480360381019061021391906129cc565b6108ee565b005b348015610225575f5ffd5b50610240600480360381019061023b91906127bf565b61098f565b60405161025296959493929190612a97565b60405180910390f35b348015610266575f5ffd5b5061026f610b00565b005b34801561027c575f5ffd5b5061029760048036038101906102929190612bc4565b610b9c565b6040516102a49190612cf1565b60405180910390f35b3480156102b8575f5ffd5b506102d360048036038101906102ce91906127bf565b610cb0565b6040516102e0919061259f565b60405180910390f35b3480156102f4575f5ffd5b506102fd610cc3565b005b34801561030a575f5ffd5b50610325600480360381019061032091906127bf565b610cd6565b005b610341600480360381019061033c9190612d11565b610d99565b005b34801561034e575f5ffd5b50610357610fab565b6040516103649190612d5e565b60405180910390f35b348015610378575f5ffd5b50610393600480360381019061038e9190612da1565b610fd3565b005b3480156103a0575f5ffd5b506103bb60048036038101906103b691906127bf565b610fe9565b6040516103c891906124ec565b60405180910390f35b3480156103dc575f5ffd5b506103f760048036038101906103f29190612ddf565b611003565b604051610404919061259f565b60405180910390f35b348015610418575f5ffd5b50610433600480360381019061042e9190612e1d565b611091565b005b348015610440575f5ffd5b5061045b60048036038101906104569190612eb0565b611132565b005b348015610468575f5ffd5b50610483600480360381019061047e91906127bf565b6111b4565b60405161049596959493929190612edb565b60405180910390f35b5f5f73ffffffffffffffffffffffffffffffffffffffff168373ffffffffffffffffffffffffffffffffffffffff160361050d576040517f08c379a000000000000000000000000000000000000000000000000000000000815260040161050490612fbf565b60405180910390fd5b5f5f8381526020019081526020015f205f8473ffffffffffffffffffffffffffffffffffffffff1673ffffffffffffffffffffffffffffffffffffffff1681526020019081526020015f2054905092915050565b5f7fd9b67a26000000000000000000000000000000000000000000000000000000007bffffffffffffffffffffffffffffffffffffffffffffffffffffffff1916827bffffffffffffffffffffffffffffffffffffffffffffffffffffffff1916148061062b57507f0e89341c000000000000000000000000000000000000000000000000000000007bffffffffffffffffffffffffffffffffffffffffffffffffffffffff1916827bffffffffffffffffffffffffffffffffffffffffffffffffffffffff1916145b8061063b575061063a8261138a565b5b9050919050565b61064a6113f3565b5f831161068c576040517f08c379a00000000000000000000000000000000000000000000000000000000081526004016106839061304d565b60405180910390fd5b5f82116106ce576040517f08c379a00000000000000000000000000000000000000000000000000000000081526004016106c5906130db565b60405180910390fd5b5f600654905060065f8154809291906106e690613126565b91905055506040518060c001604052808781526020018681526020018581526020018481526020016001151581526020018381525060055f8381526020019081526020015f205f820151815f01908161073f919061336a565b506020820151816001019081610755919061336a565b5060408201518160020155606082015181600301556080820151816004015f6101000a81548160ff02191690831515021790555060a082015181600501908161079e919061336a565b509050506107bc30828660405180602001604052805f815250611471565b807fbcb85f42be3a3e78b7507ec74b3065993d0bb2568041ffc60c1e2d1d4f032771878787876040516107f29493929190613439565b60405180910390a2505050505050565b606061080d82610cb0565b61084c576040517f08c379a0000000000000000000000000000000000000000000000000000000008152600401610843906134d4565b60405180910390fd5b60055f8381526020019081526020015f20600501805461086b9061319a565b80601f01602080910402602001604051908101604052809291908181526020018280546108979061319a565b80156108e25780601f106108b9576101008083540402835291602001916108e2565b820191905f5260205f20905b8154815290600101906020018083116108c557829003601f168201915b50505050509050919050565b6108f6611614565b73ffffffffffffffffffffffffffffffffffffffff168573ffffffffffffffffffffffffffffffffffffffff16148061093c575061093b85610936611614565b611003565b5b61097b576040517f08c379a000000000000000000000000000000000000000000000000000000000815260040161097290613562565b60405180910390fd5b610988858585858561161b565b5050505050565b6060805f5f5f5f5f60055f8981526020019081526020015f209050805f018160010182600201548360030154846004015f9054906101000a900460ff166109d6308e61049e565b8580546109e29061319a565b80601f0160208091040260200160405190810160405280929190818152602001828054610a0e9061319a565b8015610a595780601f10610a3057610100808354040283529160200191610a59565b820191905f5260205f20905b815481529060010190602001808311610a3c57829003601f168201915b50505050509550848054610a6c9061319a565b80601f0160208091040260200160405190810160405280929190818152602001828054610a989061319a565b8015610ae35780601f10610aba57610100808354040283529160200191610ae3565b820191905f5260205f20905b815481529060010190602001808311610ac657829003601f168201915b505050505094509650965096509650965096505091939550919395565b610b086113f3565b5f4790505f8111610b4e576040517f08c379a0000000000000000000000000000000000000000000000000000000008152600401610b45906135ca565b60405180910390fd5b610b56610fab565b73ffffffffffffffffffffffffffffffffffffffff166108fc8290811502906040515f60405180830381858888f19350505050158015610b98573d5f5f3e3d5ffd5b5050565b60608151835114610be2576040517f08c379a0000000000000000000000000000000000000000000000000000000008152600401610bd990613658565b60405180910390fd5b5f835167ffffffffffffffff811115610bfe57610bfd6125d0565b5b604051908082528060200260200182016040528015610c2c5781602001602082028036833780820191505090505b5090505f5f90505b8451811015610ca557610c7b858281518110610c5357610c52613676565b5b6020026020010151858381518110610c6e57610c6d613676565b5b602002602001015161049e565b828281518110610c8e57610c8d613676565b5b602002602001018181525050806001019050610c34565b508091505092915050565b5f5f610cbb83610fe9565b119050919050565b610ccb6113f3565b610cd45f611926565b565b610cde6113f3565b60055f8281526020019081526020015f206004015f9054906101000a900460ff16610d3e576040517f08c379a0000000000000000000000000000000000000000000000000000000008152600401610d35906136ed565b60405180910390fd5b5f60055f8381526020019081526020015f206004015f6101000a81548160ff021916908315150217905550807f7bc5467b3abd536b298666c57448e8ec6a25e7929f01a0789e4ef525716f45e360405160405180910390a250565b5f60055f8481526020019081526020015f209050806004015f9054906101000a900460ff16610dfd576040517f08c379a0000000000000000000000000000000000000000000000000000000008152600401610df490613755565b60405180910390fd5b5f8211610e3f576040517f08c379a0000000000000000000000000000000000000000000000000000000008152600401610e36906137bd565b60405180910390fd5b5f816003015483610e5091906137db565b905080341015610e95576040517f08c379a0000000000000000000000000000000000000000000000000000000008152600401610e8c90613866565b60405180910390fd5b82610ea0308661049e565b1015610ee1576040517f08c379a0000000000000000000000000000000000000000000000000000000008152600401610ed8906138ce565b60405180910390fd5b610efc3033868660405180602001604052805f8152506119e9565b833373ffffffffffffffffffffffffffffffffffffffff167f0d1a0d5e3d583a0e92588799dd06e50fd78c07daf05f0cc06d7b848b1ca445f18584604051610f459291906138ec565b60405180910390a380341115610fa5573373ffffffffffffffffffffffffffffffffffffffff166108fc8234610f7b9190613913565b90811502906040515f60405180830381858888f19350505050158015610fa3573d5f5f3e3d5ffd5b505b50505050565b5f60045f9054906101000a900473ffffffffffffffffffffffffffffffffffffffff16905090565b610fe5610fde611614565b8383611c72565b5050565b5f60035f8381526020019081526020015f20549050919050565b5f60015f8473ffffffffffffffffffffffffffffffffffffffff1673ffffffffffffffffffffffffffffffffffffffff1681526020019081526020015f205f8373ffffffffffffffffffffffffffffffffffffffff1673ffffffffffffffffffffffffffffffffffffffff1681526020019081526020015f205f9054906101000a900460ff16905092915050565b611099611614565b73ffffffffffffffffffffffffffffffffffffffff168573ffffffffffffffffffffffffffffffffffffffff1614806110df57506110de856110d9611614565b611003565b5b61111e576040517f08c379a000000000000000000000000000000000000000000000000000000000815260040161111590613562565b60405180910390fd5b61112b85858585856119e9565b5050505050565b61113a6113f3565b5f73ffffffffffffffffffffffffffffffffffffffff168173ffffffffffffffffffffffffffffffffffffffff16036111a8576040517f08c379a000000000000000000000000000000000000000000000000000000000815260040161119f906139b6565b60405180910390fd5b6111b181611926565b50565b6005602052805f5260405f205f91509050805f0180546111d39061319a565b80601f01602080910402602001604051908101604052809291908181526020018280546111ff9061319a565b801561124a5780601f106112215761010080835404028352916020019161124a565b820191905f5260205f20905b81548152906001019060200180831161122d57829003601f168201915b50505050509080600101805461125f9061319a565b80601f016020809104026020016040519081016040528092919081815260200182805461128b9061319a565b80156112d65780601f106112ad576101008083540402835291602001916112d6565b820191905f5260205f20905b8154815290600101906020018083116112b957829003601f168201915b505050505090806002015490806003015490806004015f9054906101000a900460ff16908060050180546113099061319a565b80601f01602080910402602001604051908101604052809291908181526020018280546113359061319a565b80156113805780601f1061135757610100808354040283529160200191611380565b820191905f5260205f20905b81548152906001019060200180831161136357829003601f168201915b5050505050905086565b5f7f01ffc9a7000000000000000000000000000000000000000000000000000000007bffffffffffffffffffffffffffffffffffffffffffffffffffffffff1916827bffffffffffffffffffffffffffffffffffffffffffffffffffffffff1916149050919050565b6113fb611614565b73ffffffffffffffffffffffffffffffffffffffff16611419610fab565b73ffffffffffffffffffffffffffffffffffffffff161461146f576040517f08c379a000000000000000000000000000000000000000000000000000000000815260040161146690613a1e565b60405180910390fd5b565b5f73ffffffffffffffffffffffffffffffffffffffff168473ffffffffffffffffffffffffffffffffffffffff16036114df576040517f08c379a00000000000000000000000000000000000000000000000000000000081526004016114d690613aac565b60405180910390fd5b5f6114e8611614565b90505f6114f485611dd9565b90505f61150085611dd9565b9050611510835f89858589611e51565b845f5f8881526020019081526020015f205f8973ffffffffffffffffffffffffffffffffffffffff1673ffffffffffffffffffffffffffffffffffffffff1681526020019081526020015f205f82825461156a9190613aca565b925050819055508673ffffffffffffffffffffffffffffffffffffffff165f73ffffffffffffffffffffffffffffffffffffffff168473ffffffffffffffffffffffffffffffffffffffff167fc3d58168c5ae7397731d063d5bbf3d657854427343f4c083240f7aacaa2d0f6289896040516115e79291906138ec565b60405180910390a46115fd835f89858589611e67565b61160b835f89898989611e6f565b50505050505050565b5f33905090565b815183511461165f576040517f08c379a000000000000000000000000000000000000000000000000000000000815260040161165690613b6d565b60405180910390fd5b5f73ffffffffffffffffffffffffffffffffffffffff168473ffffffffffffffffffffffffffffffffffffffff16036116cd576040517f08c379a00000000000000000000000000000000000000000000000000000000081526004016116c490613bfb565b60405180910390fd5b5f6116d6611614565b90506116e6818787878787611e51565b5f5f90505b8451811015611883575f85828151811061170857611707613676565b5b602002602001015190505f85838151811061172657611725613676565b5b602002602001015190505f5f5f8481526020019081526020015f205f8b73ffffffffffffffffffffffffffffffffffffffff1673ffffffffffffffffffffffffffffffffffffffff1681526020019081526020015f20549050818110156117c2576040517f08c379a00000000000000000000000000000000000000000000000000000000081526004016117b990613c89565b60405180910390fd5b8181035f5f8581526020019081526020015f205f8c73ffffffffffffffffffffffffffffffffffffffff1673ffffffffffffffffffffffffffffffffffffffff1681526020019081526020015f2081905550815f5f8581526020019081526020015f205f8b73ffffffffffffffffffffffffffffffffffffffff1673ffffffffffffffffffffffffffffffffffffffff1681526020019081526020015f205f82825461186e9190613aca565b925050819055505050508060010190506116eb565b508473ffffffffffffffffffffffffffffffffffffffff168673ffffffffffffffffffffffffffffffffffffffff168273ffffffffffffffffffffffffffffffffffffffff167f4a39dc06d4c0dbc64b70af90fd698a233a518aa5d07e595d983b8c0526c8f7fb87876040516118fa929190613ca7565b60405180910390a4611910818787878787611e67565b61191e818787878787612045565b505050505050565b5f60045f9054906101000a900473ffffffffffffffffffffffffffffffffffffffff1690508160045f6101000a81548173ffffffffffffffffffffffffffffffffffffffff021916908373ffffffffffffffffffffffffffffffffffffffff1602179055508173ffffffffffffffffffffffffffffffffffffffff168173ffffffffffffffffffffffffffffffffffffffff167f8be0079c531659141344cd1fd0a4f28419497f9722a3daafe3b4186f6b6457e060405160405180910390a35050565b5f73ffffffffffffffffffffffffffffffffffffffff168473ffffffffffffffffffffffffffffffffffffffff1603611a57576040517f08c379a0000000000000000000000000000000000000000000000000000000008152600401611a4e90613bfb565b60405180910390fd5b5f611a60611614565b90505f611a6c85611dd9565b90505f611a7885611dd9565b9050611a88838989858589611e51565b5f5f5f8881526020019081526020015f205f8a73ffffffffffffffffffffffffffffffffffffffff1673ffffffffffffffffffffffffffffffffffffffff1681526020019081526020015f2054905085811015611b1a576040517f08c379a0000000000000000000000000000000000000000000000000000000008152600401611b1190613c89565b60405180910390fd5b8581035f5f8981526020019081526020015f205f8b73ffffffffffffffffffffffffffffffffffffffff1673ffffffffffffffffffffffffffffffffffffffff1681526020019081526020015f2081905550855f5f8981526020019081526020015f205f8a73ffffffffffffffffffffffffffffffffffffffff1673ffffffffffffffffffffffffffffffffffffffff1681526020019081526020015f205f828254611bc69190613aca565b925050819055508773ffffffffffffffffffffffffffffffffffffffff168973ffffffffffffffffffffffffffffffffffffffff168573ffffffffffffffffffffffffffffffffffffffff167fc3d58168c5ae7397731d063d5bbf3d657854427343f4c083240f7aacaa2d0f628a8a604051611c439291906138ec565b60405180910390a4611c59848a8a86868a611e67565b611c67848a8a8a8a8a611e6f565b505050505050505050565b8173ffffffffffffffffffffffffffffffffffffffff168373ffffffffffffffffffffffffffffffffffffffff1603611ce0576040517f08c379a0000000000000000000000000000000000000000000000000000000008152600401611cd790613d4c565b60405180910390fd5b8060015f8573ffffffffffffffffffffffffffffffffffffffff1673ffffffffffffffffffffffffffffffffffffffff1681526020019081526020015f205f8473ffffffffffffffffffffffffffffffffffffffff1673ffffffffffffffffffffffffffffffffffffffff1681526020019081526020015f205f6101000a81548160ff0219169083151502179055508173ffffffffffffffffffffffffffffffffffffffff168373ffffffffffffffffffffffffffffffffffffffff167f17307eab39ab6107e8899845ad3d59bd9653f200f220920489ca2b5937696c3183604051611dcc919061259f565b60405180910390a3505050565b60605f600167ffffffffffffffff811115611df757611df66125d0565b5b604051908082528060200260200182016040528015611e255781602001602082028036833780820191505090505b50905082815f81518110611e3c57611e3b613676565b5b60200260200101818152505080915050919050565b611e5f86868686868661221b565b505050505050565b505050505050565b611e8e8473ffffffffffffffffffffffffffffffffffffffff166123d7565b1561203d578373ffffffffffffffffffffffffffffffffffffffff1663f23a6e6187878686866040518663ffffffff1660e01b8152600401611ed4959493929190613dbc565b6020604051808303815f875af1925050508015611f0f57506040513d601f19601f82011682018060405250810190611f0c9190613e28565b60015b611fb457611f1b613e5f565b806308c379a003611f775750611f2f613e7e565b80611f3a5750611f79565b806040517f08c379a0000000000000000000000000000000000000000000000000000000008152600401611f6e919061284a565b60405180910390fd5b505b6040517f08c379a0000000000000000000000000000000000000000000000000000000008152600401611fab90613f7d565b60405180910390fd5b63f23a6e6160e01b7bffffffffffffffffffffffffffffffffffffffffffffffffffffffff1916817bffffffffffffffffffffffffffffffffffffffffffffffffffffffff19161461203b576040517f08c379a00000000000000000000000000000000000000000000000000000000081526004016120329061400b565b60405180910390fd5b505b505050505050565b6120648473ffffffffffffffffffffffffffffffffffffffff166123d7565b15612213578373ffffffffffffffffffffffffffffffffffffffff1663bc197c8187878686866040518663ffffffff1660e01b81526004016120aa959493929190614029565b6020604051808303815f875af19250505080156120e557506040513d601f19601f820116820180604052508101906120e29190613e28565b60015b61218a576120f1613e5f565b806308c379a00361214d5750612105613e7e565b80612110575061214f565b806040517f08c379a0000000000000000000000000000000000000000000000000000000008152600401612144919061284a565b60405180910390fd5b505b6040517f08c379a000000000000000000000000000000000000000000000000000000000815260040161218190613f7d565b60405180910390fd5b63bc197c8160e01b7bffffffffffffffffffffffffffffffffffffffffffffffffffffffff1916817bffffffffffffffffffffffffffffffffffffffffffffffffffffffff191614612211576040517f08c379a00000000000000000000000000000000000000000000000000000000081526004016122089061400b565b60405180910390fd5b505b505050505050565b6122298686868686866123f9565b5f73ffffffffffffffffffffffffffffffffffffffff168573ffffffffffffffffffffffffffffffffffffffff16036122d2575f5f90505b83518110156122d05782818151811061227d5761227c613676565b5b602002602001015160035f86848151811061229b5761229a613676565b5b602002602001015181526020019081526020015f205f8282546122be9190613aca565b92505081905550806001019050612261565b505b5f73ffffffffffffffffffffffffffffffffffffffff168473ffffffffffffffffffffffffffffffffffffffff16036123cf575f5f90505b83518110156123cd575f84828151811061232757612326613676565b5b602002602001015190505f84838151811061234557612344613676565b5b602002602001015190505f60035f8481526020019081526020015f20549050818110156123a7576040517f08c379a000000000000000000000000000000000000000000000000000000000815260040161239e906140ff565b60405180910390fd5b81810360035f8581526020019081526020015f208190555050505080600101905061230a565b505b505050505050565b5f5f8273ffffffffffffffffffffffffffffffffffffffff163b119050919050565b505050505050565b5f604051905090565b5f5ffd5b5f5ffd5b5f73ffffffffffffffffffffffffffffffffffffffff82169050919050565b5f61243b82612412565b9050919050565b61244b81612431565b8114612455575f5ffd5b50565b5f8135905061246681612442565b92915050565b5f819050919050565b61247e8161246c565b8114612488575f5ffd5b50565b5f8135905061249981612475565b92915050565b5f5f604083850312156124b5576124b461240a565b5b5f6124c285828601612458565b92505060206124d38582860161248b565b9150509250929050565b6124e68161246c565b82525050565b5f6020820190506124ff5f8301846124dd565b92915050565b5f7fffffffff0000000000000000000000000000000000000000000000000000000082169050919050565b61253981612505565b8114612543575f5ffd5b50565b5f8135905061255481612530565b92915050565b5f6020828403121561256f5761256e61240a565b5b5f61257c84828501612546565b91505092915050565b5f8115159050919050565b61259981612585565b82525050565b5f6020820190506125b25f830184612590565b92915050565b5f5ffd5b5f5ffd5b5f601f19601f8301169050919050565b7f4e487b71000000000000000000000000000000000000000000000000000000005f52604160045260245ffd5b612606826125c0565b810181811067ffffffffffffffff82111715612625576126246125d0565b5b80604052505050565b5f612637612401565b905061264382826125fd565b919050565b5f67ffffffffffffffff821115612662576126616125d0565b5b61266b826125c0565b9050602081019050919050565b828183375f83830152505050565b5f61269861269384612648565b61262e565b9050828152602081018484840111156126b4576126b36125bc565b5b6126bf848285612678565b509392505050565b5f82601f8301126126db576126da6125b8565b5b81356126eb848260208601612686565b91505092915050565b5f5f5f5f5f60a0868803121561270d5761270c61240a565b5b5f86013567ffffffffffffffff81111561272a5761272961240e565b5b612736888289016126c7565b955050602086013567ffffffffffffffff8111156127575761275661240e565b5b612763888289016126c7565b94505060406127748882890161248b565b93505060606127858882890161248b565b925050608086013567ffffffffffffffff8111156127a6576127a561240e565b5b6127b2888289016126c7565b9150509295509295909350565b5f602082840312156127d4576127d361240a565b5b5f6127e18482850161248b565b91505092915050565b5f81519050919050565b5f82825260208201905092915050565b8281835e5f83830152505050565b5f61281c826127ea565b61282681856127f4565b9350612836818560208601612804565b61283f816125c0565b840191505092915050565b5f6020820190508181035f8301526128628184612812565b905092915050565b5f67ffffffffffffffff821115612884576128836125d0565b5b602082029050602081019050919050565b5f5ffd5b5f6128ab6128a68461286a565b61262e565b905080838252602082019050602084028301858111156128ce576128cd612895565b5b835b818110156128f757806128e3888261248b565b8452602084019350506020810190506128d0565b5050509392505050565b5f82601f830112612915576129146125b8565b5b8135612925848260208601612899565b91505092915050565b5f67ffffffffffffffff821115612948576129476125d0565b5b612951826125c0565b9050602081019050919050565b5f61297061296b8461292e565b61262e565b90508281526020810184848401111561298c5761298b6125bc565b5b612997848285612678565b509392505050565b5f82601f8301126129b3576129b26125b8565b5b81356129c384826020860161295e565b91505092915050565b5f5f5f5f5f60a086880312156129e5576129e461240a565b5b5f6129f288828901612458565b9550506020612a0388828901612458565b945050604086013567ffffffffffffffff811115612a2457612a2361240e565b5b612a3088828901612901565b935050606086013567ffffffffffffffff811115612a5157612a5061240e565b5b612a5d88828901612901565b925050608086013567ffffffffffffffff811115612a7e57612a7d61240e565b5b612a8a8882890161299f565b9150509295509295909350565b5f60c0820190508181035f830152612aaf8189612812565b90508181036020830152612ac38188612812565b9050612ad260408301876124dd565b612adf60608301866124dd565b612aec6080830185612590565b612af960a08301846124dd565b979650505050505050565b5f67ffffffffffffffff821115612b1e57612b1d6125d0565b5b602082029050602081019050919050565b5f612b41612b3c84612b04565b61262e565b90508083825260208201905060208402830185811115612b6457612b63612895565b5b835b81811015612b8d5780612b798882612458565b845260208401935050602081019050612b66565b5050509392505050565b5f82601f830112612bab57612baa6125b8565b5b8135612bbb848260208601612b2f565b91505092915050565b5f5f60408385031215612bda57612bd961240a565b5b5f83013567ffffffffffffffff811115612bf757612bf661240e565b5b612c0385828601612b97565b925050602083013567ffffffffffffffff811115612c2457612c2361240e565b5b612c3085828601612901565b9150509250929050565b5f81519050919050565b5f82825260208201905092915050565b5f819050602082019050919050565b612c6c8161246c565b82525050565b5f612c7d8383612c63565b60208301905092915050565b5f602082019050919050565b5f612c9f82612c3a565b612ca98185612c44565b9350612cb483612c54565b805f5b83811015612ce4578151612ccb8882612c72565b9750612cd683612c89565b925050600181019050612cb7565b5085935050505092915050565b5f6020820190508181035f830152612d098184612c95565b905092915050565b5f5f60408385031215612d2757612d2661240a565b5b5f612d348582860161248b565b9250506020612d458582860161248b565b9150509250929050565b612d5881612431565b82525050565b5f602082019050612d715f830184612d4f565b92915050565b612d8081612585565b8114612d8a575f5ffd5b50565b5f81359050612d9b81612d77565b92915050565b5f5f60408385031215612db757612db661240a565b5b5f612dc485828601612458565b9250506020612dd585828601612d8d565b9150509250929050565b5f5f60408385031215612df557612df461240a565b5b5f612e0285828601612458565b9250506020612e1385828601612458565b9150509250929050565b5f5f5f5f5f60a08688031215612e3657612e3561240a565b5b5f612e4388828901612458565b9550506020612e5488828901612458565b9450506040612e658882890161248b565b9350506060612e768882890161248b565b925050608086013567ffffffffffffffff811115612e9757612e9661240e565b5b612ea38882890161299f565b9150509295509295909350565b5f60208284031215612ec557612ec461240a565b5b5f612ed284828501612458565b91505092915050565b5f60c0820190508181035f830152612ef38189612812565b90508181036020830152612f078188612812565b9050612f1660408301876124dd565b612f2360608301866124dd565b612f306080830185612590565b81810360a0830152612f428184612812565b9050979650505050505050565b7f455243313135353a2061646472657373207a65726f206973206e6f74206120765f8201527f616c6964206f776e657200000000000000000000000000000000000000000000602082015250565b5f612fa9602a836127f4565b9150612fb482612f4f565b604082019050919050565b5f6020820190508181035f830152612fd681612f9d565b9050919050565b7f546f74616c20746f6b656e73206d7573742062652067726561746572207468615f8201527f6e20300000000000000000000000000000000000000000000000000000000000602082015250565b5f6130376023836127f4565b915061304282612fdd565b604082019050919050565b5f6020820190508181035f8301526130648161302b565b9050919050565b7f50726963652070657220746f6b656e206d7573742062652067726561746572205f8201527f7468616e20300000000000000000000000000000000000000000000000000000602082015250565b5f6130c56026836127f4565b91506130d08261306b565b604082019050919050565b5f6020820190508181035f8301526130f2816130b9565b9050919050565b7f4e487b71000000000000000000000000000000000000000000000000000000005f52601160045260245ffd5b5f6131308261246c565b91507fffffffffffffffffffffffffffffffffffffffffffffffffffffffffffffffff8203613162576131616130f9565b5b600182019050919050565b7f4e487b71000000000000000000000000000000000000000000000000000000005f52602260045260245ffd5b5f60028204905060018216806131b157607f821691505b6020821081036131c4576131c361316d565b5b50919050565b5f819050815f5260205f209050919050565b5f6020601f8301049050919050565b5f82821b905092915050565b5f600883026132267fffffffffffffffffffffffffffffffffffffffffffffffffffffffffffffffff826131eb565b61323086836131eb565b95508019841693508086168417925050509392505050565b5f819050919050565b5f61326b6132666132618461246c565b613248565b61246c565b9050919050565b5f819050919050565b61328483613251565b61329861329082613272565b8484546131f7565b825550505050565b5f5f905090565b6132af6132a0565b6132ba81848461327b565b505050565b5b818110156132dd576132d25f826132a7565b6001810190506132c0565b5050565b601f821115613322576132f3816131ca565b6132fc846131dc565b8101602085101561330b578190505b61331f613317856131dc565b8301826132bf565b50505b505050565b5f82821c905092915050565b5f6133425f1984600802613327565b1980831691505092915050565b5f61335a8383613333565b9150826002028217905092915050565b613373826127ea565b67ffffffffffffffff81111561338c5761338b6125d0565b5b613396825461319a565b6133a18282856132e1565b5f60209050601f8311600181146133d2575f84156133c0578287015190505b6133ca858261334f565b865550613431565b601f1984166133e0866131ca565b5f5b82811015613407578489015182556001820191506020850194506020810190506133e2565b868310156134245784890151613420601f891682613333565b8355505b6001600288020188555050505b505050505050565b5f6080820190508181035f8301526134518187612812565b905081810360208301526134658186612812565b905061347460408301856124dd565b61348160608301846124dd565b95945050505050565b7f55524920717565727920666f72206e6f6e6578697374656e7420746f6b656e005f82015250565b5f6134be601f836127f4565b91506134c98261348a565b602082019050919050565b5f6020820190508181035f8301526134eb816134b2565b9050919050565b7f455243313135353a2063616c6c6572206973206e6f7420746f6b656e206f776e5f8201527f6572206f7220617070726f766564000000000000000000000000000000000000602082015250565b5f61354c602e836127f4565b9150613557826134f2565b604082019050919050565b5f6020820190508181035f83015261357981613540565b9050919050565b7f4e6f2062616c616e636520746f207769746864726177000000000000000000005f82015250565b5f6135b46016836127f4565b91506135bf82613580565b602082019050919050565b5f6020820190508181035f8301526135e1816135a8565b9050919050565b7f455243313135353a206163636f756e747320616e6420696473206c656e6774685f8201527f206d69736d617463680000000000000000000000000000000000000000000000602082015250565b5f6136426029836127f4565b915061364d826135e8565b604082019050919050565b5f6020820190508181035f83015261366f81613636565b9050919050565b7f4e487b71000000000000000000000000000000000000000000000000000000005f52603260045260245ffd5b7f50726f706572747920697320616c726561647920696e616374697665000000005f82015250565b5f6136d7601c836127f4565b91506136e2826136a3565b602082019050919050565b5f6020820190508181035f830152613704816136cb565b9050919050565b7f50726f7065727479206973206e6f7420616374697665000000000000000000005f82015250565b5f61373f6016836127f4565b915061374a8261370b565b602082019050919050565b5f6020820190508181035f83015261376c81613733565b9050919050565b7f416d6f756e74206d7573742062652067726561746572207468616e20300000005f82015250565b5f6137a7601d836127f4565b91506137b282613773565b602082019050919050565b5f6020820190508181035f8301526137d48161379b565b9050919050565b5f6137e58261246c565b91506137f08361246c565b92508282026137fe8161246c565b91508282048414831517613815576138146130f9565b5b5092915050565b7f496e73756666696369656e74207061796d656e740000000000000000000000005f82015250565b5f6138506014836127f4565b915061385b8261381c565b602082019050919050565b5f6020820190508181035f83015261387d81613844565b9050919050565b7f4e6f7420656e6f75676820746f6b656e7320617661696c61626c6500000000005f82015250565b5f6138b8601b836127f4565b91506138c382613884565b602082019050919050565b5f6020820190508181035f8301526138e5816138ac565b9050919050565b5f6040820190506138ff5f8301856124dd565b61390c60208301846124dd565b9392505050565b5f61391d8261246c565b91506139288361246c565b92508282039050818111156139405761393f6130f9565b5b92915050565b7f4f776e61626c653a206e6577206f776e657220697320746865207a65726f20615f8201527f6464726573730000000000000000000000000000000000000000000000000000602082015250565b5f6139a06026836127f4565b91506139ab82613946565b604082019050919050565b5f6020820190508181035f8301526139cd81613994565b9050919050565b7f4f776e61626c653a2063616c6c6572206973206e6f7420746865206f776e65725f82015250565b5f613a086020836127f4565b9150613a13826139d4565b602082019050919050565b5f6020820190508181035f830152613a35816139fc565b9050919050565b7f455243313135353a206d696e7420746f20746865207a65726f206164647265735f8201527f7300000000000000000000000000000000000000000000000000000000000000602082015250565b5f613a966021836127f4565b9150613aa182613a3c565b604082019050919050565b5f6020820190508181035f830152613ac381613a8a565b9050919050565b5f613ad48261246c565b9150613adf8361246c565b9250828201905080821115613af757613af66130f9565b5b92915050565b7f455243313135353a2069647320616e6420616d6f756e7473206c656e677468205f8201527f6d69736d61746368000000000000000000000000000000000000000000000000602082015250565b5f613b576028836127f4565b9150613b6282613afd565b604082019050919050565b5f6020820190508181035f830152613b8481613b4b565b9050919050565b7f455243313135353a207472616e7366657220746f20746865207a65726f2061645f8201527f6472657373000000000000000000000000000000000000000000000000000000602082015250565b5f613be56025836127f4565b9150613bf082613b8b565b604082019050919050565b5f6020820190508181035f830152613c1281613bd9565b9050919050565b7f455243313135353a20696e73756666696369656e742062616c616e636520666f5f8201527f72207472616e7366657200000000000000000000000000000000000000000000602082015250565b5f613c73602a836127f4565b9150613c7e82613c19565b604082019050919050565b5f6020820190508181035f830152613ca081613c67565b9050919050565b5f6040820190508181035f830152613cbf8185612c95565b90508181036020830152613cd38184612c95565b90509392505050565b7f455243313135353a2073657474696e6720617070726f76616c207374617475735f8201527f20666f722073656c660000000000000000000000000000000000000000000000602082015250565b5f613d366029836127f4565b9150613d4182613cdc565b604082019050919050565b5f6020820190508181035f830152613d6381613d2a565b9050919050565b5f81519050919050565b5f82825260208201905092915050565b5f613d8e82613d6a565b613d988185613d74565b9350613da8818560208601612804565b613db1816125c0565b840191505092915050565b5f60a082019050613dcf5f830188612d4f565b613ddc6020830187612d4f565b613de960408301866124dd565b613df660608301856124dd565b8181036080830152613e088184613d84565b90509695505050505050565b5f81519050613e2281612530565b92915050565b5f60208284031215613e3d57613e3c61240a565b5b5f613e4a84828501613e14565b91505092915050565b5f8160e01c9050919050565b5f60033d1115613e7b5760045f5f3e613e785f51613e53565b90505b90565b5f60443d10613f0a57613e8f612401565b60043d036004823e80513d602482011167ffffffffffffffff82111715613eb7575050613f0a565b808201805167ffffffffffffffff811115613ed55750505050613f0a565b80602083010160043d038501811115613ef2575050505050613f0a565b613f01826020018501866125fd565b82955050505050505b90565b7f455243313135353a207472616e7366657220746f206e6f6e2d455243313135355f8201527f526563656976657220696d706c656d656e746572000000000000000000000000602082015250565b5f613f676034836127f4565b9150613f7282613f0d565b604082019050919050565b5f6020820190508181035f830152613f9481613f5b565b9050919050565b7f455243313135353a204552433131353552656365697665722072656a656374655f8201527f6420746f6b656e73000000000000000000000000000000000000000000000000602082015250565b5f613ff56028836127f4565b915061400082613f9b565b604082019050919050565b5f6020820190508181035f83015261402281613fe9565b9050919050565b5f60a08201905061403c5f830188612d4f565b6140496020830187612d4f565b818103604083015261405b8186612c95565b9050818103606083015261406f8185612c95565b905081810360808301526140838184613d84565b90509695505050505050565b7f455243313135353a206275726e20616d6f756e74206578636565647320746f745f8201527f616c537570706c79000000000000000000000000000000000000000000000000602082015250565b5f6140e96028836127f4565b91506140f48261408f565b604082019050919050565b5f6020820190508181035f830152614116816140dd565b905091905056fea26469706673582212208c205f22f7121713ce4ed4207be6f40a160d740d8fce1985587eb3180439d5b964736f6c634300081c0033",
  "linkReferences": {},
  "deployedLinkReferences": {}
}