{
  "_format": "hh-sol-artifact-1",
  "contractName": "RealEstateMarketplace",
  "sourceName": "contracts/RealEstateMarketplace.sol",
  "abi": [
    {
      "inputs": [
        {
          "internalType": "address",
          "name": "tokenContractAddress",
          "type": "address"
        },
        {
          "internalType": "uint256",
          "name": "initialFeeRate",
          "type": "uint256"
        }
      ],
      "stateMutability": "nonpayable",
      "type": "constructor"
    },
    {
      "anonymous": false,
      "inputs": [
        {
          "indexed": true,
          "internalType": "uint256",
          "name": "listingId",
          "type": "uint256"
        }
      ],
      "name": "ListingCancelled",
      "type": "event"
    },
    {
      "anonymous": false,
      "inputs": [
        {
          "indexed": true,
          "internalType": "uint256",
          "name": "listingId",
          "type": "uint256"
        },
        {
          "indexed": true,
          "internalType": "address",
          "name": "seller",
          "type": "address"
        },
        {
          "indexed": true,
          "internalType": "uint256",
          "name": "propertyId",
          "type": "uint256"
        },
        {
          "indexed": false,
          "internalType": "uint256",
          "name": "amount",
          "type": "uint256"
        },
        {
          "indexed": false,
          "internalType": "uint256",
          "name": "pricePerToken",
          "type": "uint256"
        }
      ],
      "name": "ListingCreated",
      "type": "event"
    },
    {
      "anonymous": false,
      "inputs": [
        {
          "indexed": true,
          "internalType": "uint256",
          "name": "listingId",
          "type": "uint256"
        },
        {
          "indexed": true,
          "internalType": "address",
          "name": "buyer",
          "type": "address"
        },
        {
          "indexed": true,
          "internalType": "uint256",
          "name": "propertyId",
          "type": "uint256"
        },
        {
          "indexed": false,
          "internalType": "uint256",
          "name": "amount",
          "type": "uint256"
        },
        {
          "indexed": false,
          "internalType": "uint256",
          "name": "totalPrice",
          "type": "uint256"
        }
      ],
      "name": "ListingPurchased",
      "type": "event"
    },
    {
      "anonymous": false,
      "inputs": [
        {
          "indexed": true,
          "internalType": "address",
          "name": "previousOwner",
          "type": "address"
        },
        {
          "indexed": true,
          "internalType": "address",
          "name": "newOwner",
          "type": "address"
        }
      ],
      "name": "OwnershipTransferred",
      "type": "event"
    },
    {
      "anonymous": false,
      "inputs": [
        {
          "indexed": false,
          "internalType": "uint256",
          "name": "newFeeRate",
          "type": "uint256"
        }
      ],
      "name": "PlatformFeeUpdated",
      "type": "event"
    },
    {
      "inputs": [
        {
          "internalType": "uint256",
          "name": "listingId",
          "type": "uint256"
        }
      ],
      "name": "cancelListing",
      "outputs": [],
      "stateMutability": "nonpayable",
      "type": "function"
    },
    {
      "inputs": [
        {
          "internalType": "uint256",
          "name": "propertyId",
          "type": "uint256"
        },
        {
          "internalType": "uint256",
          "name": "amount",
          "type": "uint256"
        },
        {
          "internalType": "uint256",
          "name": "pricePerToken",
          "type": "uint256"
        }
      ],
      "name": "createListing",
      "outputs": [],
      "stateMutability": "nonpayable",
      "type": "function"
    },
    {
      "inputs": [
        {
          "internalType": "uint256",
          "name": "listingId",
          "type": "uint256"
        }
      ],
      "name": "getListing",
      "outputs": [
        {
          "internalType": "address",
          "name": "seller",
          "type": "address"
        },
        {
          "internalType": "uint256",
          "name": "propertyId",
          "type": "uint256"
        },
        {
          "internalType": "uint256",
          "name": "amount",
          "type": "uint256"
        },
        {
          "internalType": "uint256",
          "name": "pricePerToken",
          "type": "uint256"
        },
        {
          "internalType": "bool",
          "name": "isActive",
          "type": "bool"
        }
      ],
      "stateMutability": "view",
      "type": "function"
    },
    {
      "inputs": [
        {
          "internalType": "uint256",
          "name": "",
          "type": "uint256"
        }
      ],
      "name": "listings",
      "outputs": [
        {
          "internalType": "address",
          "name": "seller",
          "type": "address"
        },
        {
          "internalType": "uint256",
          "name": "propertyId",
          "type": "uint256"
        },
        {
          "internalType": "uint256",
          "name": "amount",
          "type": "uint256"
        },
        {
          "internalType": "uint256",
          "name": "pricePerToken",
          "type": "uint256"
        },
        {
          "internalType": "bool",
          "name": "isActive",
          "type": "bool"
        }
      ],
      "stateMutability": "view",
      "type": "function"
    },
    {
      "inputs": [
        {
          "internalType": "address",
          "name": "",
          "type": "address"
        },
        {
          "internalType": "address",
          "name": "",
          "type": "address"
        },
        {
          "internalType": "uint256[]",
          "name": "",
          "type": "uint256[]"
        },
        {
          "internalType": "uint256[]",
          "name": "",
          "type": "uint256[]"
        },
        {
          "internalType": "bytes",
          "name": "",
          "type": "bytes"
        }
      ],
      "name": "onERC1155BatchReceived",
      "outputs": [
        {
          "internalType": "bytes4",
          "name": "",
          "type": "bytes4"
        }
      ],
      "stateMutability": "nonpayable",
      "type": "function"
    },
    {
      "inputs": [
        {
          "internalType": "address",
          "name": "",
          "type": "address"
        },
        {
          "internalType": "address",
          "name": "",
          "type": "address"
        },
        {
          "internalType": "uint256",
          "name": "",
          "type": "uint256"
        },
        {
          "internalType": "uint256",
          "name": "",
          "type": "uint256"
        },
        {
          "internalType": "bytes",
          "name": "",
          "type": "bytes"
        }
      ],
      "name": "onERC1155Received",
      "outputs": [
        {
          "internalType": "bytes4",
          "name": "",
          "type": "bytes4"
        }
      ],
      "stateMutability": "nonpayable",
      "type": "function"
    },
    {
      "inputs": [],
      "name": "owner",
      "outputs": [
        {
          "internalType": "address",
          "name": "",
          "type": "address"
        }
      ],
      "stateMutability": "view",
      "type": "function"
    },
    {
      "inputs": [],
      "name": "platformFeeRate",
      "outputs": [
        {
          "internalType": "uint256",
          "name": "",
          "type": "uint256"
        }
      ],
      "stateMutability": "view",
      "type": "function"
    },
    {
      "inputs": [
        {
          "internalType": "uint256",
          "name": "listingId",
          "type": "uint256"
        },
        {
          "internalType": "uint256",
          "name": "amount",
          "type": "uint256"
        }
      ],
      "name": "purchaseListing",
      "outputs": [],
      "stateMutability": "payable",
      "type": "function"
    },
    {
      "inputs": [],
      "name": "renounceOwnership",
      "outputs": [],
      "stateMutability": "nonpayable",
      "type": "function"
    },
    {
      "inputs": [
        {
          "internalType": "bytes4",
          "name": "interfaceId",
          "type": "bytes4"
        }
      ],
      "name": "supportsInterface",
      "outputs": [
        {
          "internalType": "bool",
          "name": "",
          "type": "bool"
        }
      ],
      "stateMutability": "view",
      "type": "function"
    },
    {
      "inputs": [],
      "name": "tokenContract",
      "outputs": [
        {
          "internalType": "contract RealEstateToken",
          "name": "",
          "type": "address"
        }
      ],
      "stateMutability": "view",
      "type": "function"
    },
    {
      "inputs": [
        {
          "internalType": "address",
          "name": "newOwner",
          "type": "address"
        }
      ],
      "name": "transferOwnership",
      "outputs": [],
      "stateMutability": "nonpayable",
      "type": "function"
    },
    {
      "inputs": [
        {
          "internalType": "uint256",
          "name": "newFeeRate",
          "type": "uint256"
        }
      ],
      "name": "updatePlatformFeeRate",
      "outputs": [],
      "stateMutability": "nonpayable",
      "type": "function"
    },
    {
      "inputs": [],
      "name": "withdrawPlatformFees",
      "outputs": [],
      "stateMutability": "nonpayable",
      "type": "function"
    }
  ],
  "bytecode": "0x60a060405234801561000f575f5ffd5b506040516123073803806123078339818101604052810190610031919061023d565b60015f819055506100546100496100e260201b60201c565b6100e960201b60201c565b6103e8811115610099576040517f08c379a0000000000000000000000000000000000000000000000000000000008152600401610090906102d5565b60405180910390fd5b8173ffffffffffffffffffffffffffffffffffffffff1660808173ffffffffffffffffffffffffffffffffffffffff1681525050806004819055505f60038190555050506102f3565b5f33905090565b5f60015f9054906101000a900473ffffffffffffffffffffffffffffffffffffffff1690508160015f6101000a81548173ffffffffffffffffffffffffffffffffffffffff021916908373ffffffffffffffffffffffffffffffffffffffff1602179055508173ffffffffffffffffffffffffffffffffffffffff168173ffffffffffffffffffffffffffffffffffffffff167f8be0079c531659141344cd1fd0a4f28419497f9722a3daafe3b4186f6b6457e060405160405180910390a35050565b5f5ffd5b5f73ffffffffffffffffffffffffffffffffffffffff82169050919050565b5f6101d9826101b0565b9050919050565b6101e9816101cf565b81146101f3575f5ffd5b50565b5f81519050610204816101e0565b92915050565b5f819050919050565b61021c8161020a565b8114610226575f5ffd5b50565b5f8151905061023781610213565b92915050565b5f5f60408385031215610253576102526101ac565b5b5f610260858286016101f6565b925050602061027185828601610229565b9150509250929050565b5f82825260208201905092915050565b7f46656520726174652063616e6e6f7420657863656564203130250000000000005f82015250565b5f6102bf601a8361027b565b91506102ca8261028b565b602082019050919050565b5f6020820190508181035f8301526102ec816102b3565b9050919050565b608051611fe06103275f395f8181610508015281816108bc0152818161098901528181610b030152610ccf0152611fe05ff3fe6080604052600436106100e6575f3560e01c8063ae3b7f0611610089578063de74e57b11610058578063de74e57b146102b6578063eeca08f0146102f6578063f23a6e6114610320578063f2fde38b1461035c576100e6565b8063ae3b7f0614610214578063b03053b61461023c578063bc197c8114610264578063d0b7830b146102a0576100e6565b8063305a67a8116100c5578063305a67a81461018257806355a373d6146101aa578063715018a6146101d45780638da5cb5b146101ea576100e6565b8062b395f4146100ea57806301ffc9a714610106578063107a274a14610142575b5f5ffd5b61010460048036038101906100ff91906111ad565b610384565b005b348015610111575f5ffd5b5061012c60048036038101906101279190611240565b6106ba565b6040516101399190611285565b60405180910390f35b34801561014d575f5ffd5b506101686004803603810190610163919061129e565b610733565b604051610179959493929190611317565b60405180910390f35b34801561018d575f5ffd5b506101a860048036038101906101a3919061129e565b6107a3565b005b3480156101b5575f5ffd5b506101be610987565b6040516101cb91906113c3565b60405180910390f35b3480156101df575f5ffd5b506101e86109ab565b005b3480156101f5575f5ffd5b506101fe6109be565b60405161020b91906113dc565b60405180910390f35b34801561021f575f5ffd5b5061023a6004803603810190610235919061129e565b6109e6565b005b348015610247575f5ffd5b50610262600480360381019061025d91906113f5565b610a74565b005b34801561026f575f5ffd5b5061028a6004803603810190610285919061166f565b610db9565b6040516102979190611749565b60405180910390f35b3480156102ab575f5ffd5b506102b4610dcd565b005b3480156102c1575f5ffd5b506102dc60048036038101906102d7919061129e565b610e69565b6040516102ed959493929190611317565b60405180910390f35b348015610301575f5ffd5b5061030a610ec6565b6040516103179190611762565b60405180910390f35b34801561032b575f5ffd5b506103466004803603810190610341919061177b565b610ecc565b6040516103539190611749565b60405180910390f35b348015610367575f5ffd5b50610382600480360381019061037d919061180e565b610ee0565b005b61038c610f62565b5f60025f8481526020019081526020015f209050806004015f9054906101000a900460ff166103f0576040517f08c379a00000000000000000000000000000000000000000000000000000000081526004016103e790611893565b60405180910390fd5b5f82118015610403575080600201548211155b610442576040517f08c379a0000000000000000000000000000000000000000000000000000000008152600401610439906118fb565b60405180910390fd5b5f8160030154836104539190611946565b905080341015610498576040517f08c379a000000000000000000000000000000000000000000000000000000000815260040161048f906119d1565b60405180910390fd5b5f612710600454836104aa9190611946565b6104b49190611a1c565b90505f81836104c39190611a4c565b905084846002015f8282546104d89190611a4c565b925050819055505f846002015403610506575f846004015f6101000a81548160ff0219169083151502179055505b7f000000000000000000000000000000000000000000000000000000000000000073ffffffffffffffffffffffffffffffffffffffff1663f242432a30338760010154896040518563ffffffff1660e01b81526004016105699493929190611ab2565b5f604051808303815f87803b158015610580575f5ffd5b505af1158015610592573d5f5f3e3d5ffd5b50505050835f015f9054906101000a900473ffffffffffffffffffffffffffffffffffffffff1673ffffffffffffffffffffffffffffffffffffffff166108fc8290811502906040515f60405180830381858888f193505050501580156105fb573d5f5f3e3d5ffd5b5083600101543373ffffffffffffffffffffffffffffffffffffffff16877f368510ec09302a4eb4637946a44346df02a215f56b61b37833d7fc6755f4ce34888760405161064a929190611b08565b60405180910390a4823411156106aa573373ffffffffffffffffffffffffffffffffffffffff166108fc84346106809190611a4c565b90811502906040515f60405180830381858888f193505050501580156106a8573d5f5f3e3d5ffd5b505b505050506106b6610faf565b5050565b5f7f4e2312e0000000000000000000000000000000000000000000000000000000007bffffffffffffffffffffffffffffffffffffffffffffffffffffffff1916827bffffffffffffffffffffffffffffffffffffffffffffffffffffffff1916148061072c575061072b82610fb8565b5b9050919050565b5f5f5f5f5f5f60025f8881526020019081526020015f209050805f015f9054906101000a900473ffffffffffffffffffffffffffffffffffffffff16816001015482600201548360030154846004015f9054906101000a900460ff16955095509550955095505091939590929450565b6107ab610f62565b5f60025f8381526020019081526020015f209050806004015f9054906101000a900460ff1661080f576040517f08c379a000000000000000000000000000000000000000000000000000000000815260040161080690611893565b60405180910390fd5b3373ffffffffffffffffffffffffffffffffffffffff16815f015f9054906101000a900473ffffffffffffffffffffffffffffffffffffffff1673ffffffffffffffffffffffffffffffffffffffff161461089f576040517f08c379a000000000000000000000000000000000000000000000000000000000815260040161089690611b79565b60405180910390fd5b5f816004015f6101000a81548160ff0219169083151502179055507f000000000000000000000000000000000000000000000000000000000000000073ffffffffffffffffffffffffffffffffffffffff1663f242432a3033846001015485600201546040518563ffffffff1660e01b81526004016109219493929190611ab2565b5f604051808303815f87803b158015610938575f5ffd5b505af115801561094a573d5f5f3e3d5ffd5b50505050817f411aee90354c51b1b04cd563fcab2617142a9d50da19232d888547c8a1b7fd8a60405160405180910390a250610984610faf565b50565b7f000000000000000000000000000000000000000000000000000000000000000081565b6109b3611021565b6109bc5f61109f565b565b5f60015f9054906101000a900473ffffffffffffffffffffffffffffffffffffffff16905090565b6109ee611021565b6103e8811115610a33576040517f08c379a0000000000000000000000000000000000000000000000000000000008152600401610a2a90611be1565b60405180910390fd5b806004819055507f45610d581145924dd7090a5017e5f2b1d6f42213bb2e95707ff86846bbfcb1ca81604051610a699190611762565b60405180910390a150565b610a7c610f62565b5f8211610abe576040517f08c379a0000000000000000000000000000000000000000000000000000000008152600401610ab590611c49565b60405180910390fd5b5f8111610b00576040517f08c379a0000000000000000000000000000000000000000000000000000000008152600401610af790611cb1565b60405180910390fd5b817f000000000000000000000000000000000000000000000000000000000000000073ffffffffffffffffffffffffffffffffffffffff1662fdd58e33866040518363ffffffff1660e01b8152600401610b5b929190611ccf565b602060405180830381865afa158015610b76573d5f5f3e3d5ffd5b505050506040513d601f19601f82011682018060405250810190610b9a9190611d0a565b1015610bdb576040517f08c379a0000000000000000000000000000000000000000000000000000000008152600401610bd290611d7f565b60405180910390fd5b5f600354905060035f815480929190610bf390611d9d565b91905055506040518060a001604052803373ffffffffffffffffffffffffffffffffffffffff1681526020018581526020018481526020018381526020016001151581525060025f8381526020019081526020015f205f820151815f015f6101000a81548173ffffffffffffffffffffffffffffffffffffffff021916908373ffffffffffffffffffffffffffffffffffffffff1602179055506020820151816001015560408201518160020155606082015181600301556080820151816004015f6101000a81548160ff0219169083151502179055509050507f000000000000000000000000000000000000000000000000000000000000000073ffffffffffffffffffffffffffffffffffffffff1663f242432a333087876040518563ffffffff1660e01b8152600401610d2c9493929190611ab2565b5f604051808303815f87803b158015610d43575f5ffd5b505af1158015610d55573d5f5f3e3d5ffd5b50505050833373ffffffffffffffffffffffffffffffffffffffff16827fa3941cfa07eecf2734875ab71cea0e47395be644da6e17b039a7e29efba74ef98686604051610da3929190611b08565b60405180910390a450610db4610faf565b505050565b5f63bc197c8160e01b905095945050505050565b610dd5611021565b5f4790505f8111610e1b576040517f08c379a0000000000000000000000000000000000000000000000000000000008152600401610e1290611e2e565b60405180910390fd5b610e236109be565b73ffffffffffffffffffffffffffffffffffffffff166108fc8290811502906040515f60405180830381858888f19350505050158015610e65573d5f5f3e3d5ffd5b5050565b6002602052805f5260405f205f91509050805f015f9054906101000a900473ffffffffffffffffffffffffffffffffffffffff1690806001015490806002015490806003015490806004015f9054906101000a900460ff16905085565b60045481565b5f63f23a6e6160e01b905095945050505050565b610ee8611021565b5f73ffffffffffffffffffffffffffffffffffffffff168173ffffffffffffffffffffffffffffffffffffffff1603610f56576040517f08c379a0000000000000000000000000000000000000000000000000000000008152600401610f4d90611ebc565b60405180910390fd5b610f5f8161109f565b50565b60025f5403610fa6576040517f08c379a0000000000000000000000000000000000000000000000000000000008152600401610f9d90611f24565b60405180910390fd5b60025f81905550565b60015f81905550565b5f7f01ffc9a7000000000000000000000000000000000000000000000000000000007bffffffffffffffffffffffffffffffffffffffffffffffffffffffff1916827bffffffffffffffffffffffffffffffffffffffffffffffffffffffff1916149050919050565b611029611162565b73ffffffffffffffffffffffffffffffffffffffff166110476109be565b73ffffffffffffffffffffffffffffffffffffffff161461109d576040517f08c379a000000000000000000000000000000000000000000000000000000000815260040161109490611f8c565b60405180910390fd5b565b5f60015f9054906101000a900473ffffffffffffffffffffffffffffffffffffffff1690508160015f6101000a81548173ffffffffffffffffffffffffffffffffffffffff021916908373ffffffffffffffffffffffffffffffffffffffff1602179055508173ffffffffffffffffffffffffffffffffffffffff168173ffffffffffffffffffffffffffffffffffffffff167f8be0079c531659141344cd1fd0a4f28419497f9722a3daafe3b4186f6b6457e060405160405180910390a35050565b5f33905090565b5f604051905090565b5f5ffd5b5f5ffd5b5f819050919050565b61118c8161117a565b8114611196575f5ffd5b50565b5f813590506111a781611183565b92915050565b5f5f604083850312156111c3576111c2611172565b5b5f6111d085828601611199565b92505060206111e185828601611199565b9150509250929050565b5f7fffffffff0000000000000000000000000000000000000000000000000000000082169050919050565b61121f816111eb565b8114611229575f5ffd5b50565b5f8135905061123a81611216565b92915050565b5f6020828403121561125557611254611172565b5b5f6112628482850161122c565b91505092915050565b5f8115159050919050565b61127f8161126b565b82525050565b5f6020820190506112985f830184611276565b92915050565b5f602082840312156112b3576112b2611172565b5b5f6112c084828501611199565b91505092915050565b5f73ffffffffffffffffffffffffffffffffffffffff82169050919050565b5f6112f2826112c9565b9050919050565b611302816112e8565b82525050565b6113118161117a565b82525050565b5f60a08201905061132a5f8301886112f9565b6113376020830187611308565b6113446040830186611308565b6113516060830185611308565b61135e6080830184611276565b9695505050505050565b5f819050919050565b5f61138b611386611381846112c9565b611368565b6112c9565b9050919050565b5f61139c82611371565b9050919050565b5f6113ad82611392565b9050919050565b6113bd816113a3565b82525050565b5f6020820190506113d65f8301846113b4565b92915050565b5f6020820190506113ef5f8301846112f9565b92915050565b5f5f5f6060848603121561140c5761140b611172565b5b5f61141986828701611199565b935050602061142a86828701611199565b925050604061143b86828701611199565b9150509250925092565b61144e816112e8565b8114611458575f5ffd5b50565b5f8135905061146981611445565b92915050565b5f5ffd5b5f601f19601f8301169050919050565b7f4e487b71000000000000000000000000000000000000000000000000000000005f52604160045260245ffd5b6114b982611473565b810181811067ffffffffffffffff821117156114d8576114d7611483565b5b80604052505050565b5f6114ea611169565b90506114f682826114b0565b919050565b5f67ffffffffffffffff82111561151557611514611483565b5b602082029050602081019050919050565b5f5ffd5b5f61153c611537846114fb565b6114e1565b9050808382526020820190506020840283018581111561155f5761155e611526565b5b835b8181101561158857806115748882611199565b845260208401935050602081019050611561565b5050509392505050565b5f82601f8301126115a6576115a561146f565b5b81356115b684826020860161152a565b91505092915050565b5f5ffd5b5f67ffffffffffffffff8211156115dd576115dc611483565b5b6115e682611473565b9050602081019050919050565b828183375f83830152505050565b5f61161361160e846115c3565b6114e1565b90508281526020810184848401111561162f5761162e6115bf565b5b61163a8482856115f3565b509392505050565b5f82601f8301126116565761165561146f565b5b8135611666848260208601611601565b91505092915050565b5f5f5f5f5f60a0868803121561168857611687611172565b5b5f6116958882890161145b565b95505060206116a68882890161145b565b945050604086013567ffffffffffffffff8111156116c7576116c6611176565b5b6116d388828901611592565b935050606086013567ffffffffffffffff8111156116f4576116f3611176565b5b61170088828901611592565b925050608086013567ffffffffffffffff81111561172157611720611176565b5b61172d88828901611642565b9150509295509295909350565b611743816111eb565b82525050565b5f60208201905061175c5f83018461173a565b92915050565b5f6020820190506117755f830184611308565b92915050565b5f5f5f5f5f60a0868803121561179457611793611172565b5b5f6117a18882890161145b565b95505060206117b28882890161145b565b94505060406117c388828901611199565b93505060606117d488828901611199565b925050608086013567ffffffffffffffff8111156117f5576117f4611176565b5b61180188828901611642565b9150509295509295909350565b5f6020828403121561182357611822611172565b5b5f6118308482850161145b565b91505092915050565b5f82825260208201905092915050565b7f4c697374696e67206973206e6f742061637469766500000000000000000000005f82015250565b5f61187d601583611839565b915061188882611849565b602082019050919050565b5f6020820190508181035f8301526118aa81611871565b9050919050565b7f496e76616c696420616d6f756e740000000000000000000000000000000000005f82015250565b5f6118e5600e83611839565b91506118f0826118b1565b602082019050919050565b5f6020820190508181035f830152611912816118d9565b9050919050565b7f4e487b71000000000000000000000000000000000000000000000000000000005f52601160045260245ffd5b5f6119508261117a565b915061195b8361117a565b92508282026119698161117a565b915082820484148315176119805761197f611919565b5b5092915050565b7f496e73756666696369656e74207061796d656e740000000000000000000000005f82015250565b5f6119bb601483611839565b91506119c682611987565b602082019050919050565b5f6020820190508181035f8301526119e8816119af565b9050919050565b7f4e487b71000000000000000000000000000000000000000000000000000000005f52601260045260245ffd5b5f611a268261117a565b9150611a318361117a565b925082611a4157611a406119ef565b5b828204905092915050565b5f611a568261117a565b9150611a618361117a565b9250828203905081811115611a7957611a78611919565b5b92915050565b5f82825260208201905092915050565b50565b5f611a9d5f83611a7f565b9150611aa882611a8f565b5f82019050919050565b5f60a082019050611ac55f8301876112f9565b611ad260208301866112f9565b611adf6040830185611308565b611aec6060830184611308565b8181036080830152611afd81611a92565b905095945050505050565b5f604082019050611b1b5f830185611308565b611b286020830184611308565b9392505050565b7f4f6e6c792073656c6c65722063616e2063616e63656c206c697374696e6700005f82015250565b5f611b63601e83611839565b9150611b6e82611b2f565b602082019050919050565b5f6020820190508181035f830152611b9081611b57565b9050919050565b7f46656520726174652063616e6e6f7420657863656564203130250000000000005f82015250565b5f611bcb601a83611839565b9150611bd682611b97565b602082019050919050565b5f6020820190508181035f830152611bf881611bbf565b9050919050565b7f416d6f756e74206d7573742062652067726561746572207468616e20300000005f82015250565b5f611c33601d83611839565b9150611c3e82611bff565b602082019050919050565b5f6020820190508181035f830152611c6081611c27565b9050919050565b7f5072696365206d7573742062652067726561746572207468616e2030000000005f82015250565b5f611c9b601c83611839565b9150611ca682611c67565b602082019050919050565b5f6020820190508181035f830152611cc881611c8f565b9050919050565b5f604082019050611ce25f8301856112f9565b611cef6020830184611308565b9392505050565b5f81519050611d0481611183565b92915050565b5f60208284031215611d1f57611d1e611172565b5b5f611d2c84828501611cf6565b91505092915050565b7f496e73756666696369656e7420746f6b656e2062616c616e63650000000000005f82015250565b5f611d69601a83611839565b9150611d7482611d35565b602082019050919050565b5f6020820190508181035f830152611d9681611d5d565b9050919050565b5f611da78261117a565b91507fffffffffffffffffffffffffffffffffffffffffffffffffffffffffffffffff8203611dd957611dd8611919565b5b600182019050919050565b7f4e6f2062616c616e636520746f207769746864726177000000000000000000005f82015250565b5f611e18601683611839565b9150611e2382611de4565b602082019050919050565b5f6020820190508181035f830152611e4581611e0c565b9050919050565b7f4f776e61626c653a206e6577206f776e657220697320746865207a65726f20615f8201527f6464726573730000000000000000000000000000000000000000000000000000602082015250565b5f611ea6602683611839565b9150611eb182611e4c565b604082019050919050565b5f6020820190508181035f830152611ed381611e9a565b9050919050565b7f5265656e7472616e637947756172643a207265656e7472616e742063616c6c005f82015250565b5f611f0e601f83611839565b9150611f1982611eda565b602082019050919050565b5f6020820190508181035f830152611f3b81611f02565b9050919050565b7f4f776e61626c653a2063616c6c6572206973206e6f7420746865206f776e65725f82015250565b5f611f76602083611839565b9150611f8182611f42565b602082019050919050565b5f6020820190508181035f830152611fa381611f6a565b905091905056fea2646970667358221220abec8dd4ea34e1ee7364fd7dfd7ef06a252d60d1c5615f92065e9c88903ce82c64736f6c634300081c0033",
  "linkReferences": {},
  "deployedLinkReferences": {}
}